:020000040800F2
:10000000880600209D010008A5010008A70100083E
:1000100000000000000000000000000000000000E0
:10002000000000000000000000000000A90100081E
:100030000000000000000000AB010008AD01000856
:10004000AF010008AF010008AF010008AF010008D0
:10005000AF010008AF010008AF010008AF010008C0
:10006000AF010008AF010008AF010008AF010008B0
:10007000AF010008AF010008AF010008AF010008A0
:10008000AF010008AF010008AF010008AF01000890
:10009000AF010008AF010008AF010008AF01000880
:1000A000AF010008AF010008AF0100087D030008A0
:1000B000AF010008AF010008AF010008AF01000860
:1000C00000F002F800F03EF80CA030C80838241800
:1000D0002D18671EA246AB4654465D46AC4201D180
:1000E00000F030F87E460F3EB6460FCC0126334274
:1000F00000D0FB1A3343A246AB461847280800003D
:1001000048080000103A02D378C878C1FAD85207DC
:1001100001D330C830C101D504680C6070470000BD
:100120000023002400250026103A01D378C1FBD813
:10013000520700D330C100D50B6070471FB51FBDFB
:1001400010B510BD00F08AF81146FFF7F7FF00F078
:10015000EFFA00F0A2F803B4FFF7F2FF03BC00F0DF
:10016000A9F8000070B505460C46164602E00FCC13
:100170000FC5103E102EFAD2082E02D303CC03C5B1
:10018000083E042E07D301CC01C5361F03E02178B9
:100190002970641C6D1C761EF9D270BD074880471B
:1001A00007480047FEE7FEE7FEE7FEE7FEE7FEE75B
:1001B00004480549054A064B7047000079030008CA
:1001C000C100000888000020880600208802002066
:1001D00088020020F8B5042A2CD3830712D00B78AC
:1001E000491C0370401C521E83070BD00B78491C1E
:1001F0000370401C521E830704D00B78491C037007
:10020000401C521E8B079B0F05D0C91ADF0020230C
:10021000DE1B08C90AE0FFF7A5FFF8BD1D4608C9A7
:10022000FD401C46B4402C4310C0121F042AF5D2D6
:10023000F308C91A521EF0D40B78491C0370401CF5
:10024000521EEAD40B78491C0370401C012AE4D4E6
:1002500009780170F8BD704770477047754600F027
:1002600025F8AE46050069465346C008C0008546DD
:1002700018B020B5FFF79CFF60BCB64600260027EB
:10028000C0C5C0C5C0C5C0C5C0C5C0C5C0C5C0C546
:10029000403D490849008D46704710B50446C046A8
:1002A000C0462046FFF757FF10BD000000487047CA
:1002B0001000002001491820ABBEFEE72600020016
:1002C00070470000B0B5224801680122930319432A
:1002D0000160204801685304194301600920C006E9
:1002E00001680523DB04194301601B4801681123E1
:1002F0001B011943016019480168530299430160C9
:100300001748016803239C04A143016015490D6847
:1003100025430D6001681B059943016001681305C1
:100320001943016010480168914301600F4945235A
:100330000B600C21016001686023194301600C49C6
:1003400000230B600B490B60016811430160B0BDD5
:100350001810024014100240240000480400004815
:100360000C00004808000048003801400C380140EB
:1003700004380140083801407047000010B589B0CA
:100380000020089007A9087006A90870FFE706A8D2
:100390000078052812DCFFE706A80078DA49085C37
:1003A000002805D0FFE70798401C07A90870FFE761
:1003B000FFE70698401C06A90870E8E7CA480068ED
:1003C0008006002800D482E1C8480088C849087027
:1003D0000878302823DBFFE7C548007839281EDC81
:1003E000FFE7C4480068401C062818D8FFE7C0484B
:1003F0000078C0490978C04A5054FFE7BA480068FD
:100400000006002801D4FFE7F8E7BA480178BA4AA5
:10041000515CBA4A11800168491C0160FFE7B44889
:1004200000780D2800D031E1B348007830380890CA
:1004300005A801210170FFE705A80078AD4909680A
:10044000884210D2FFE708980A21414305A80078A6
:10045000A94A105C401830380890FFE70598401C06
:1004600005A90870E8E70898A549086004A80021D4
:100470000170FFE704A800789E490968884211D2FC
:10048000FFE7FFE7984800680006002801D4FFE76F
:10049000F8E79A487F210180FFE70498401C04A9EF
:1004A0000870E7E7FFE7904800680006002801D4DD
:1004B000FFE7F8E791481B210180FFE78A480068C1
:1004C0000006002801D4FFE7F8E78C485B21018093
:1004D000FFE7FD4800680006002801D4FFE7F8E7C1
:1004E000FA484121018003A800210170FFE703A819
:1004F000007807A90978884227DCFFE7FFE7F24880
:1005000000680006002801D4FFE7F8E7EF481B2148
:100510000180FFE7EC4800680006002801D4FFE7EF
:10052000F8E7EA485B210180FFE7E748006800063A
:10053000002801D4FFE7F8E7E44843210180FFE702
:100540000398401C03A90870D1E702A8002101709C
:10055000FFE702A8007807A90978884211DCFFE7C5
:10056000FFE7D94800680006002801D4FFE7F8E754
:10057000D6487F210180FFE70298401C02A908703D
:10058000E7E701A800210170FFE701A8007805282E
:1005900025DCFFE701A80178574A535CCE4C635431
:1005A0000078105C00280FD0FFE7FFE7C64800681E
:1005B0000006002801D4FFE7F8E701A800784E49BB
:1005C000085CC2490880FFE701A800784A49002278
:1005D0000A54FFE70198401C01A90870D5E7FFE71E
:1005E000B94800680006002801D4FFE7F8E7B748DB
:1005F0001B210180FFE7B44800680006002801D4F1
:10060000FFE7F8E7B1485B210180FFE7AE480068EB
:100610000006002801D4FFE7F8E7AC48422101803A
:10062000684600210170FFE768460078A349096821
:10063000884227D2FFE7FFE7A348006800060028AA
:1006400001D4FFE7F8E7A1481B210180FFE79E489E
:1006500000680006002801D4FFE7F8E79B485B210B
:100660000180FFE7984800680006002801D4FFE7F2
:10067000F8E7964844210180FFE70098401C69464E
:100680000870D1E78D4800210160FFE71848007825
:100690007F3841424841894909684A1E91410842D0
:1006A00014D0FFE7854801684A1E0260C8B21249AB
:1006B00000220A54FFE7844800680006002801D49D
:1006C000FFE7F8E781487F210180FFE7FFE77E48E9
:1006D00000684006002804D5FFE70A484021016071
:1006E000FFE709B010BDC0461C3801402438014066
:1006F000800000207C00002070000020283801408D
:1007000008000020203801400000002082B0019045
:1007100000200090FFE700980199884205D2FFE78A
:10072000FFE70098401C0090F5E702B0704700001A
:1007300010B5A0B000201E90EFF3108172B61F918B
:10074000584915AA2423079010461A460693FFF726
:1007500041FD55490CAA05901046069AFFF73AFD4F
:1007600052490A6801239C0422430A6050490A68DE
:10077000504C22430A6050490A681C0222430A6016
:100780004E49079A0A6004900393FFF79BFD4C487B
:100790000168039AD306194301604A4802600AA817
:1007A00007990170FFE70AA80078232814DCFFE707
:1007B000FFE7454800680006002801D4FFE7F8E796
:1007C0000AA8007815A9085C40490880FFE70A9844
:1007D000401C0AA90870E6E709A800210170FFE79C
:1007E00009A80078052814DCFFE7FFE73648006811
:1007F0000006002801D4FFE7F8E709A80078364989
:10080000085C32490880FFE70998401C09A9087074
:10081000E6E7FFE72C4800680006002801D4FFE760
:10082000F8E72A480D210180FFE727480068000605
:10083000002801D4FFE7F8E724480A21018008A82E
:1008400000210170FFE708A80078232814DCFFE7E7
:10085000FFE71D4800680006002801D4FFE7F8E71D
:1008600008A800780CA9085C18490880FFE70898D8
:10087000401C08A90870E6E762B6FFE71448006864
:100880000B901448012101600B9A029010460191CF
:10089000FFF73CFF01980104029A11600B98FFF7E3
:1008A00035FFEBE700090008DC08000814100240DF
:1008B0000004004805000100140400487C000020EA
:1008C00000E100E0780000201C3801402838014099
:1008D000080000201804004800000020D09DD0BE71
:1008E000D0B2D0BED0B520D0B7D0BDD0B0D187D097
:1008F000B5D0BDD0B8D0B52C20D0BCD0BAD1813ABB
:10090000D0BFD0B5D180D0B8D0BED0B420D0BCD06C
:10091000B8D0B3D0B0D0BDD0B8D18F2C20D0BCD0FF
:10092000BAD1813A44090008000000200C00000000
:10093000040100085009000810000020780600009B
:1009400020010008353030303000000050C3000076
:040000050800019D51
:00000001FF
